:10000000B8010120FD0200009903000099030000DF
:10001000990300009903000099030000000000000C
:100020000000000000000000000000009903000034
:1000300099030000000000009903000099030000EC
:100040009903000099030000990300009903000040
:100050009903000099030000990300009903000030
:100060009903000099030000990300009903000020
:100070009903000099030000990300009903000010
:100080009903000099030000990300009903000000
:1000900099030000990300009903000099030000F0
:1000A00099030000990300009903000099030000E0
:1000B00099030000990300009903000099030000D0
:1000C00099030000990300009903000099030000C0
:1000D00099030000990300009903000099030000B0
:1000E00099030000990300000000000000000000D8
:1000F000000000009903000099030000990300002C
:10010000990300009903000099030000990300007F
:10011000990300009903000099030000990300006F
:10012000990300009903000099030000990300005F
:10013000990300009903000099030000990300004F
:10014000990300009903000099030000990300003F
:100150009903000099030000000000000000000067
:10016000000000000000000000000000000000008F
:100170000000000000000000990300009903000047
:1001800099030000990300009903000099030000FF
:10019000000000009903000099030000990300008B
:1001A00099030000990300009903000099030000DF
:1001B00099030000990300009903000099030000CF
:1001C00099030000990300009903000099030000BF
:1001D00099030000990300009903000099030000AF
:1001E000990300009903000099030000990300009F
:1001F000990300009903000099030000990300008F
:1002000099030000000000000000000099030000B6
:10021000990300009903000099030000990300006E
:10022000990300009903000099030000990300005E
:10023000990300009903000099030000990300004E
:10024000990300009903000099030000990300003E
:10025000990300009903000099030000990300002E
:100260000348044B834202D0034B03B11847704745
:10027000E4040000E4040000000000000548064B10
:100280001B1AD90F01EBA301491002D0034B03B194
:1002900018477047E4040000E40400000000000078
:1002A00010B5064C237843B9FFF7DAFF044B13B1BE
:1002B0000448AFF300800123237010BD0400002028
:1002C00000000000E404000008B5054B1BB105491F
:1002D0000548AFF30080BDE80840FFF7CFBF00BF7F
:1002E0000000000008000020E404000080B400AF1B
:1002F00000231846BD4680BC7047000080B582B020
:1003000000AF1C4B7B601C4B3B607A683B689A4299
:100310000CD007E07A68131D7B603B68191D3960BB
:1003200012681A603B68154A9342F3D3144B3B6042
:1003300004E03B681A1D3A6000221A603B68114ACB
:100340009342F6D3104B7B607B68104A23F07F0307
:1003500093600F4B002B01D00D4B984700F030F805
:100360000C4B002B01D00B4B9847FFF7BFFF00BF92
:10037000FDE700BFE40400000000002004000020AE
:1003800004000020B80100200000000000ED00E0A3
:10039000000000000000000080B400AF00BFFDE7D7
:1003A000024B13B1024800F005B87047000000008E
:1003B00011040000002301461A46184600F040B818
:1003C00070B50F4B0F4DAB42A3EB050607D0B6102F
:1003D000002455F8043B01349847A642F9D800F0B0
:1003E0006FF8094D094B5E1BAB424FEAA60606D0DB
:1003F000002455F8043B01349847A642F9D870BD53
:10040000CC040000CC040000CC040000D4040000A4
:1004100038B5074D074C2C1BA41005D0013C55F8EE
:10042000043D9847002CF9D1BDE8384000F052B89F
:10043000E4040000E0040000704700BF704700BF04
:100440002DE9F8431B4D0646286898460F4691460D
:10045000FFF7F2FF184B1C681CB3286865681F2D56
:1004600022DC4EB96B1C0235636044F82570FFF73F
:10047000E5FF0020BDE8F88304EB85010123C1F806
:100480008890D4F88821AB401A43022EC4F8882102
:10049000C1F80881E6D1D4F88C211A43C4F88C2124
:1004A000E0E7064C1C60D8E7FFF7C8FF4FF0FF30CD
:1004B000E0E700BF0000002020000020280000200E
:1004C000F8B500BFF8BC08BC9E467047A103000009
:1004D000C9020000F8B500BFF8BC08BC9E467047D2
:0404E000A102000075
:0404E40024000020D0
:00000001FF
