:10000000B8010120810300001D0400001D04000050
:100010001D0400001D0400001D040000000000007D
:100020000000000000000000000000001D040000AF
:100030001D040000000000001D0400001D0400005D
:100040001D0400001D0400001D0400001D0400002C
:100050001D0400001D0400001D0400001D0400001C
:100060001D0400001D0400001D0400001D0400000C
:100070001D0400001D0400001D0400001D040000FC
:100080001D0400001D0400001D0400001D040000EC
:100090001D0400001D0400001D0400001D040000DC
:1000A0001D0400001D0400001D0400001D040000CC
:1000B0001D0400001D0400001D0400001D040000BC
:1000C0001D0400001D0400001D0400001D040000AC
:1000D0001D0400001D0400001D0400001D0400009C
:1000E0001D0400001D0400000000000000000000CE
:1000F000000000001D0400001D0400001D0400009D
:100100001D0400001D0400001D0400001D0400006B
:100110001D0400001D0400001D0400001D0400005B
:100120001D0400001D0400001D0400001D0400004B
:100130001D0400001D0400001D0400001D0400003B
:100140001D0400001D0400001D0400001D0400002B
:100150001D0400001D04000000000000000000005D
:10016000000000000000000000000000000000008F
:1001700000000000000000001D0400001D0400003D
:100180001D0400001D0400001D0400001D040000EB
:10019000000000001D0400001D0400001D040000FC
:1001A0001D0400001D0400001D0400001D040000CB
:1001B0001D0400001D0400001D0400001D040000BB
:1001C0001D0400001D0400001D0400001D040000AB
:1001D0001D0400001D0400001D0400001D0400009B
:1001E0001D0400001D0400001D0400001D0400008B
:1001F0001D0400001D0400001D0400001D0400007B
:100200001D04000000000000000000001D040000AC
:100210001D0400001D0400001D0400001D0400005A
:100220001D0400001D0400001D0400001D0400004A
:100230001D0400001D0400001D0400001D0400003A
:100240001D0400001D0400001D0400001D0400002A
:100250001D0400001D0400001D0400001D0400001A
:100260000348044B834202D0034B03B11847704745
:100270002409000024090000000000000548064B86
:100280001B1AD90F01EBA301491002D0034B03B194
:1002900018477047240900002409000000000000EE
:1002A00010B5064C237843B9FFF7DAFF044B13B1BE
:1002B0000448AFF300800123237010BD0400002028
:1002C000000000002409000008B5054B1BB10549DA
:1002D0000548AFF30080BDE80840FFF7CFBF00BF7F
:1002E00000000000080000202409000080B584B050
:1002F00000AFC823BB600023FB6002E0FB68013352
:10030000FB60FB68164A9342F8DD164800F04CF992
:10031000742000F098F9652000F095F9732000F042
:1003200092F9742000F08FF90A2000F08CF90E4B3E
:100330007B603B1D0121184600F0A4F808210B4802
:1003400000F0C2F810210A4800F0ECF8BB68FA2B64
:10035000FCD1084B084A3121084800F085F900BF5C
:100360009F8601009408000067452301BC08000037
:10037000CC080000A0080000DC080000B008000065
:1003800080B582B000AF1C4B7B601C4B3B607A6831
:100390003B689A420CD007E07A68131D7B603B688B
:1003A000191D396012681A603B68154A9342F3D3ED
:1003B000144B3B6004E03B681A1D3A6000221A604F
:1003C0003B68114A9342F6D3104B7B607B68104A1E
:1003D00023F07F0393600F4B002B01D00D4B984708
:1003E00000F0D8F90C4B002B01D00B4B9847FFF7CE
:1003F0007DFF00BFFDE700BF2409000000000020D2
:100400000400002004000020B801002000000000CB
:1004100000ED00E0000000000000000080B400AF2C
:1004200000BFFDE780B485B000AF78600423FB60B7
:10043000124B1B6803F00103012B19D113E000BF1D
:100440000F4B1B889BB203F00103002BF8D17B6894
:100450009BB21B029BB20A4A43F001039BB213807A
:100460007B681B0A7B60FB685A1EFA60002BE6D192
:1004700000BF1437BD4680BC704700BFF0ED00E000
:10048000F8ED00E080B582B000AF786039603B687D
:100490001B0443F4806343F001031846FFF7C2FFD7
:1004A0000AE07B681B681846FFF7BCFF7B680433D3
:1004B0007B603B68013B3B603B68002BF1DC00BF8D
:1004C00000BF0837BD4680BD80B584B000AF7860FE
:1004D00039603B681B0443F4007343F00103184682
:1004E000FFF7A0FF16E07B681B881A463B68012BCC
:1004F00004DD7B6802331B881B0400E000231343E8
:10050000FB60F868FFF78EFF7B6804337B603B6815
:10051000023B3B603B68002BE5DC00BF00BF1037AF
:10052000BD4680BD80B584B000AF786039603B685F
:100530001B0443F4807343F001031846FFF772FF76
:100540002AE07B681B781A463B68012B04DD7B6838
:1005500001331B781B0200E000231A433B68022B87
:1005600004DD7B6802331B781B0400E000231A4380
:100570003B68032B04DD7B6803331B781B0600E01C
:1005800000231343FB60F868FFF74CFF7B680433DC
:100590007B603B68043B3B603B68002BD1DC00BFC9
:1005A00000BF1037BD4680BD80B584B000AF786015
:1005B0000023FB6002E0FB680133FB60FB687A68A4
:1005C00013441B78002B03D0FB68B3F5803FF2DBAC
:1005D000FB681B0443F001031846FFF723FF2AE0E2
:1005E0007B681B781A46FB68012B04DD7B680133AE
:1005F0001B781B0200E000231A43FB68022B04DD7A
:100600007B6802331B781B0400E000231A43FB685D
:10061000032B04DD7B6803331B781B0600E00023FB
:100620001343BB60B868FFF7FDFE7B6804337B6053
:10063000FB68043BFB60FB68002BD1DC00BF00BF04
:100640001037BD4680BD80B582B000AF0346FB7158
:10065000FB791B0443F002031846FFF7E3FE00BFDB
:100660000837BD4680BD000080B584B000AFF8609B
:10067000B9607A603B603948FFF796FF3868FFF74A
:1006800093FF3748FFF790FFF868FFF78DFF3A2098
:10069000FFF7D9FF7868FFF787FF2820FFF7D3FF20
:1006A000BB68304A82FB03129211DB17D31ADBB20C
:1006B0003033DBB21846FFF7C6FFBB682A4A82FB1D
:1006C00003125211DB17D21A284B83FB0213991025
:1006D000D317C91A0B469B000B445B00D11ACBB24F
:1006E0003033DBB21846FFF7AEFFBB681F4A82FB10
:1006F00003129210DB17D21A1C4B83FB02139910C2
:10070000D317C91A0B469B000B445B00D11ACBB21E
:100710003033DBB21846FFF796FFBA68134B83FB02
:1007200002139910D317C91A0B469B000B445B00A8
:10073000D11ACBB23033DBB21846FFF784FF292041
:10074000FFF781FF0A4B1B6803F00103012B00D167
:1007500000BE00BF1037BD4680BD00BFE4080000EA
:10076000F0080000D34D62101F85EB516766666686
:10077000F0ED00E0024B13B1024800F005B87047FD
:1007800000000000E5070000002301461A46184655
:1007900000F040B870B50F4B0F4DAB42A3EB050610
:1007A00007D0B610002455F8043B01349847A64200
:1007B000F9D800F0A5F8094D094B5E1BAB424FEA92
:1007C000A60606D0002455F8043B01349847A642FB
:1007D000F9D870BD0C0900000C0900000C090000DC
:1007E0001409000038B5074D074C2C1BA41005D088
:1007F000013C55F8043D9847002CF9D1BDE838403C
:1008000000F088B82409000020090000704700BFEC
:10081000704700BF2DE9F8431B4D064628689846EF
:100820000F469146FFF7F2FF184B1C681CB328686F
:1008300065681F2D22DC4EB96B1C0235636044F8DD
:100840002570FFF7E5FF0020BDE8F88304EB850184
:100850000123C1F88890D4F88821AB401A43022EB6
:10086000C4F88821C1F80881E6D1D4F88C211A4354
:10087000C4F88C21E0E7064C1C60D8E7FFF7C8FFFE
:100880004FF0FF30E0E700BF000000202000002014
:100890002800002068656C6C6F20776F726C6400B4
:1008A0006D79436F756E7420213D20323530000024
:1008B000646562756767696E672E6300230167452B
:1008C000AB89EFCD23016745AB89EFCD0011223312
:1008D000445566778899AABBCCDDEEFF6D61696EE1
:1008E00000000000417373657274696F6E20270009
:1008F00027206661696C656420696E200000000035
:10090000F8B500BFF8BC08BC9E46704775070000EC
:10091000C9020000F8B500BFF8BC08BC9E4670478D
:04092000A102000030
:04092400240000208B
:00000001FF
